{
  "contractName": "Exams",
  "abi": [
    {
      "inputs": [],
      "payable": false,
      "stateMutability": "nonpayable",
      "type": "constructor"
    },
    {
      "constant": true,
      "inputs": [],
      "name": "getContractOwner",
      "outputs": [
        {
          "internalType": "string",
          "name": "contractOwnerAddress",
          "type": "string"
        }
      ],
      "payable": false,
      "stateMutability": "pure",
      "type": "function"
    },
    {
      "constant": false,
      "inputs": [
        {
          "internalType": "string",
          "name": "hash",
          "type": "string"
        }
      ],
      "name": "addExam",
      "outputs": [
        {
          "internalType": "string",
          "name": "examProfessorHash",
          "type": "string"
        }
      ],
      "payable": false,
      "stateMutability": "nonpayable",
      "type": "function"
    },
    {
      "constant": true,
      "inputs": [
        {
          "internalType": "string",
          "name": "hash",
          "type": "string"
        }
      ],
      "name": "isOwner",
      "outputs": [
        {
          "internalType": "bool",
          "name": "",
          "type": "bool"
        }
      ],
      "payable": false,
      "stateMutability": "view",
      "type": "function"
    },
    {
      "constant": true,
      "inputs": [
        {
          "internalType": "string",
          "name": "hash",
          "type": "string"
        }
      ],
      "name": "studentAddExam",
      "outputs": [
        {
          "internalType": "bool",
          "name": "",
          "type": "bool"
        }
      ],
      "payable": false,
      "stateMutability": "view",
      "type": "function"
    }
  ],
  "bytecode": "0x608060405234801561001057600080fd5b50336000806101000a81548173ffffffffffffffffffffffffffffffffffffffff021916908373ffffffffffffffffffffffffffffffffffffffff160217905550610848806100606000396000f3fe608060405234801561001057600080fd5b506004361061004c5760003560e01c80633bf3687814610051578063442890d514610124578063b85e943d146101a7578063db8742951461027a575b600080fd5b61010a6004803603602081101561006757600080fd5b810190808035906020019064010000000081111561008457600080fd5b82018360208201111561009657600080fd5b803590602001918460018302840111640100000000831117156100b857600080fd5b91908080601f016020809104026020016040519081016040528093929190818152602001838380828437600081840152601f19601f8201169050808301925050505050505091929192905050506103ae565b604051808215151515815260200191505060405180910390f35b61012c610581565b6040518080602001828103825283818151815260200191508051906020019080838360005b8381101561016c578082015181840152602081019050610151565b50505050905090810190601f1680156101995780820380516001836020036101000a031916815260200191505b509250505060405180910390f35b610260600480360360208110156101bd57600080fd5b81019080803590602001906401000000008111156101da57600080fd5b8201836020820111156101ec57600080fd5b8035906020019184600183028401116401000000008311171561020e57600080fd5b91908080601f016020809104026020016040519081016040528093929190818152602001838380828437600081840152601f19601f8201169050808301925050505050505091929192905050506105a1565b604051808215151515815260200191505060405180910390f35b6103336004803603602081101561029057600080fd5b81019080803590602001906401000000008111156102ad57600080fd5b8201836020820111156102bf57600080fd5b803590602001918460018302840111640100000000831117156102e157600080fd5b91908080601f016020809104026020016040519081016040528093929190818152602001838380828437600081840152601f19601f8201169050808301925050505050505091929192905050506106e6565b6040518080602001828103825283818151815260200191508051906020019080838360005b83811015610373578082015181840152602081019050610358565b50505050905090810190601f1680156103a05780820380516001836020036101000a031916815260200191505b509250505060405180910390f35b60006060600260003373ffffffffffffffffffffffffffffffffffffffff1673ffffffffffffffffffffffffffffffffffffffff1681526020019081526020016000208054600181600116156101000203166002900480601f0160208091040260200160405190810160405280929190818152602001828054600181600116156101000203166002900480156104855780601f1061045a57610100808354040283529160200191610485565b820191906000526020600020905b81548152906001019060200180831161046857829003601f168201915b5050505050905060006003826040518082805190602001908083835b602083106104c457805182526020820191506020810190506020830392506104a1565b6001836020036101000a03801982511681845116808217855250505050505090500191505090815260200160405180910390209050600081600001856040518082805190602001908083835b602083106105335780518252602082019150602081019050602083039250610510565b6001836020036101000a038019825116818451168082178552505050505050905001915050908152602001604051809103902060009054906101000a900460ff169050809350505050919050565b60606040518060600160405280602a81526020016107ea602a9139905090565b6000816040516020018082805190602001908083835b602083106105da57805182526020820191506020810190506020830392506105b7565b6001836020036101000a03801982511681845116808217855250505050505090500191505060405160208183030381529060405280519060200120600260003373ffffffffffffffffffffffffffffffffffffffff1673ffffffffffffffffffffffffffffffffffffffff16815260200190815260200160002060405160200180828054600181600116156101000203166002900480156106b25780601f106106905761010080835404028352918201916106b2565b820191906000526020600020905b81548152906001019060200180831161069e575b50509150506040516020818303038152906040528051906020012014156106dc57600190506106e1565b600090505b919050565b606081600260003373ffffffffffffffffffffffffffffffffffffffff1673ffffffffffffffffffffffffffffffffffffffff168152602001908152602001600020908051906020019061073b929190610744565b50819050919050565b828054600181600116156101000203166002900490600052602060002090601f016020900481019282601f1061078557805160ff19168380011785556107b3565b828001600101855582156107b3579182015b828111156107b2578251825591602001919060010190610797565b5b5090506107c091906107c4565b5090565b6107e691905b808211156107e25760008160009055506001016107ca565b5090565b9056fe307836374634436642303361413545324537314465313437306165323661644237653333423738393245a265627a7a72315820588d93276496a2ee3d77b1a6523304b3618ddc71f1330de0630c02c253be86fd64736f6c634300050c0032",
  "source": "pragma solidity >=0.4.22 <0.6.0;\n\n\ncontract Exams {\n    \n    address contractOwner;\n    string examsFinalHash;\n    mapping(address => string) professorsExam;\n    \n    struct Exam {\n        mapping(string => bool) examSuccess;\n    }\n    \n    mapping(string => Exam) examHash;\n\n    function getContractOwner() public pure returns (string memory contractOwnerAddress) {\n        return \"0x67F4CfB03aA5E2E71De1470ae26adB7e33B7892E\";\n    }\n\n    constructor () public {\n        contractOwner = msg.sender;\n    }\n    \n    modifier onlyOwner () {\n        require(contractOwner == msg.sender);\n        _;\n    }\n    \n    \n    function addExam(string memory hash) public returns (string memory examProfessorHash) {\n        // save the exam hash and link it with the professors address\n        professorsExam[msg.sender] = hash;\n        \n        return hash;\n    }\n    \n    function isOwner(string memory hash) public view returns (bool) {\n        // Receives an exam's hash and compares it to see if it belongs to msg.sender\n        if(keccak256(abi.encodePacked(professorsExam[msg.sender])) == keccak256(abi.encodePacked(hash))){\n            return true;\n        } else {\n            return false;\n        }\n    }\n    \n    function studentAddExam(string memory hash) public view returns (bool){\n        // Receives a student's address and adds it to the people that passed that exam\n        // Only the creator of the exam can do this\n        string memory professorsExamHash = professorsExam[msg.sender];  // The hash of the exam owned by msg.sender\n        Exam storage examObj = examHash[professorsExamHash];\n        bool studentPassedExam = examObj.examSuccess[hash];\n        return (studentPassedExam);\n    }\n}\n\n",
  "sourcePath": "/home/safaltaya/Proyectos/ExamRegsitry/contracts/Exams.sol",
  "compiler": {
    "name": "solc",
    "version": "0.5.12+commit.7709ece9.Emscripten.clang"
  },
  "schemaVersion": "3.0.19",
  "updatedAt": "2019-11-21T16:56:21.519Z",
  "networkType": "ethereum",
  "devdoc": {
    "methods": {}
  },
  "userdoc": {
    "methods": {}
  }
}